:100000000C94E42A0C94CC530C94FD530C942E5471
:100010000C9462540C9496540C94C7540C94F85459
:100020000C9429550C940E2B0C940E2B0C940E2B27
:100030000C9485560C940E2B0C940E2B0C94E156BC
:100040000C940E2B0C940E2B0C940E2B0C940E2B4C
:100050000C940E2B0C940E2B0C940E2B0C94BC5663
:100060000C940E2B0C94185A0C940E2B0C940E2BF3
:100070000C940E2B0C940E2B0C940E2B0C940E2B1C
:100080000C940E2B0C940E2B0C940E2B0C940E2B0C
:100090000C94595A0C940E2B0C940E2B0C945C78E7
:1000A0000C940E2B0C940E2B0C940E2B0C940E2BEC
:1000B0000C940E2B0C940E2B0C940E2B0C940E2BDC
:1000C0000C940E2B0C940E2B0C940E2BB553B75393
:1000D000B953BB53BD53C253BF53C1534F645E6446
:1000E0007D648C649B64AA64B9642E653C654A6532
:1000F00058655B656965776585659365A165AF65DD
:10010000BD65CB65D96545685E6876688768916826
:10011000AB681369DD6AE06AE36AEA6AF36AFC6A5B
:10012000056BA57AB37ABA7ABC7ABE7AC07AC27AFB
:100130002D2057616B6520757021210D0A002D203F
:10014000476F20746F206465657020736C656570FF
:10015000206D6F64652E2E2E002D20525443207783
:10016000696C6C207472696767657220616674657A
:1001700072202864643A68683A6D6D3A7373293A5C
:1001800020002D205254432063757272656E7420D6
:1001900074696D653A20002D204672616D65206C92
:1001A000656E6774683A20002D204672616D652087
:1001B0006275666665723A20002D205741524E499D
:1001C0004E473A20637269746963616C206261749E
:1001D00074657279206C6576656C20332072656178
:1001E00063686564002D204672616D65206C656EE4
:1001F0006774683A20002D204672616D6520627533
:10020000666665723A20002D205741524E494E478E
:100210003A20637269746963616C20626174746509
:100220007279206C6576656C203220726561636836
:100230006564002D204672616D65206C656E677483
:10024000683A20002D204672616D652062756666F1
:1002500065723A20002D205741524E494E473A20B0
:10026000637269746963616C206261747465727928
:10027000206C6576656C2031207265616368656409
:10028000002D205769466920646964206E6F7420D0
:10029000696E697469616C697A6520636F727265F1
:1002A00063746C79002D20576946692073776974EF
:1002B00063686564204F4E002D204672616D652095
:1002C0006C656E6774683A20002D204672616D651A
:1002D000206275666665723A20002043656C73691A
:1002E0007573002020534F434B45545F46202D2DFE
:1002F0003E2054656D70657261747572653A2000B8
:1003000020566F6C7473002020534F434B45545F4D
:1003100045202D2D3E204F52503A20002075732F3E
:10032000636D002020534F434B45545F43202D2DD8
:100330003E20436F6E6475637469766974793A2000
:10034000002025002020534F434B45545F42202D71
:100350002D3E20446973736F6C766564204F787905
:1003600067656E3A20002020534F434B45545F4150
:10037000202D2D3E2070483A20002D2053656E73AD
:100380006F722072656164696E673A20002D205299
:1003900054432063757272656E742074696D653A9A
:1003A00020002D2042617474657279204C65766559
:1003B0006C3A002D2D2D2D2D2D2D2D2D2D2D2D2D4E
:1003C0002D2D2D2D2D2D2D2D2D2D2D2D2D2D2D2D5D
:1003D0002D2D002D20202020202020202020202016
:1003E000204C4F4F50202020202020202020202053
:1003F000202D002D2D2D2D2D2D2D2D2D2D2D2D2D67
:100400002D2D2D2D2D2D2D2D2D2D2D2D2D2D2D2D1C
:100410002D2D002D204672616D65206C656E677410
:10042000683A20002D204672616D6520627566660F
:1004300065723A20002D205769466920736F6674F3
:100440005265736574204552524F5220002D20573B
:1004500069466920736F66745265736574204F4BEB
:10046000002D205769466920726573657420746F8A
:100470002064656661756C74204552524F52002DA0
:10048000205769466920726573657420746F206413
:10049000656661756C74002D205769466920646932
:1004A00064206E6F7420696E697469616C697A6525
:1004B00020636F72726563746C79002D20576946F2
:1004C00069207377697463686564204F4E002D2D31
:1004D0002D2D2D2D2D2D2D2D2D2D2D2D2D2D2D2D4C
:1004E0002D2D2D2D2D2D2D2D2D2D2D2D2D002D2076
:1004F000202020202020202020202053455455500B
:100500002020202020202020202020202D002D2DE4
:100510002D2D2D2D2D2D2D2D2D2D2D2D2D2D2D2D0B
:100520002D2D2D2D2D2D2D2D2D2D2D2D2D002D2D28
:100530002D2D2D2D2D2D2D2D2D2D2D2D2D2D2D2DEB
:100540002D2D2D2D2D2D2D2D2D2D2D2D2D002D2015
:100550002020202020202020536D617274205761BC
:100560007465722020202020202020202D002D2D99
:100570002D2D2D2D2D2D2D2D2D2D2D2D2D2D2D2DAB
:100580002D2D2D2D2D2D2D2D2D2D2D2D2D002D20D5
:10059000576946692073657420415554484B455945
:1005A000204552524F5220002D2057694669207332
:1005B000657420415554484B4559204F4B002D2020
:1005C0005769466920736574204553534944204553
:1005D00052524F5220002D2057694669207365748E
:1005E000204553534944204F4B002D2057694669FD
:1005F0002073657420434120636572746966696382
:10060000617465204552524F52002D20576946694A
:100610002073657420434120636572746966696361
:10062000617465204F4B002D205769466920434176
:10063000206365727469666963617465206C656EB8
:1006400067746820697320677265617465722074CD
:1006500068616E2031353030206279746573002D09
:100660002057694669206973206E6F7420636F6E2E
:100670006E656374656420746F206E6574776F7245
:100680006B002D2057694669206D6F64756C65207D
:1006900072657475726E206572726F7220696E2059
:1006A00054435020636F6E6E656374696F6E2000F3
:1006B0002D2057694669206D6F64756C65207265E1
:1006C0007475726E6564206572726F7220636C6FF0
:1006D00073696E672074686520636F6E6E656374FE
:1006E000696F6E20002D2057694669206D6F647513
:1006F0006C6520636C6F736520736F636B6574202A
:100700004F4B002D2057694669206D6F64756C65ED
:100710002053534C2068616E647368616B6520657B
:1007200072726F72002D2D2D2D2D2D2D2D2D2D2D15
:100730002D2D2D2D2D2D2D2D2D2D2D2D2D2D2D2DE9
:100740002D2D2D2D002D2D2D2D2D2D2D2D2D2D2D06
:100750002D2D2D2D2D2D2D2D2D2D2D2D2D2D2D2DC9
:100760002D2D2D2D002D2057694669206D6F647544
:100770006C652053657276657220726573706F6E5A
:1007800073653A002D2057694669206D6F64756C5A
:10079000652072657475726E6564206572726F7221
:1007A0002073656E64696E67206461746120002D3A
:1007B0002057694669206D6F64756C652073656E9E
:1007C000742064617461204F4B002D205769466985
:1007D000206D6F64756C652053534C2068616E64A6
:1007E0007368616B65204F4B002D20576946692067
:1007F0006D6F64756C652073657420757020612061
:1008000054435020736F636B657420696E20686178
:100810006E646C653A20002D2057694669206D6F23
:1008200064756C65206572726F7220676574746997
:100830006E672049502061646472657373002D20D7
:1008400057694669206D6F64756C65204950206159
:100850006464726573733A20002D205769466920DD
:10086000697320636F6E6E6563746564204F4B001F
:100870002D2D2D2D2D2D2D2D2D2D2D2D2D2D2D2DA8
:100880002D2D2D2D2D2D2D2D2D2D2D2D2D2D2D00C5
:100890002D2D2D2D2D2D2D2D2D2D2D2D2D2D2D2D88
:1008A0002D2D2D2D2D2D2D2D2D2D2D2D2D2D2D00A5
:1008B0002D204854545020726571756573743A0048
:1008C0002D20456E63727970746564206C656E6767
:1008D00074683A002D20456E6372797074656420E7
:1008E0006672616D653A002A2A2A2046494E4953AC
:1008F000482050524F4752414D202A2A2A00496E23
:10090000636F7272656374202753657269616C202E
:1009100049442720696E736572746564002D2D2D1E
:100920002D2D2D2D2D2D2D2D2D2D2D2D2D2D2D2DF7
:100930002D2D2D2D2D2D2D2D2D2D2D2D0053657271
:1009400069616C2049443A002D2D2D2D2D2D2D2D22
:100950002D2D2D2D2D2D2D2D2D2D2D2D2D2D2D2DC7
:100960002D2D2D2D2D2D2D006A092D2D2D2D2D42B6
:100970004547494E20434552544946494341544511
:100980002D2D2D2D2D0D4D494944334443434173A5
:100990005367417749424167494A414D7248654B27
:1009A00034744F554E374D41304743537147534987
:1009B000623344514542437755414D4947424D5179
:1009C0007377435159440D5651514745774A46551F
:1009D0007A45524D41384741315545434177495752
:1009E0006D467959576476656D4578455441504256
:1009F000674E564241634D43467068636D466E6272
:100A00003370684D5449770D4D4159445651514BFF
:100A100044436C4D61574A6C62476C3162534244A7
:100A200062323131626D6C6A59574E706232356C88
:100A30006379424561584E30636D6C6964576C6BE5
:100A400059584D675579354D0D4C6A45594D4259A8
:100A50004741315545417777506148637562476C2E
:100A6000695A57787064573075593239744D43411B
:100A700058445445344D5441774D7A41344E446B7B
:100A8000794F566F59447A49780D4D5467774F54D2
:100A900041354D4467304F544935576A4342675496
:100AA000454C4D416B474131554542684D43525687
:100AB0004D784554415042674E564241674D43463A
:100AC0007068636D466E623370680D4D52457744B1
:100AD000775944565151484441686159584A685AB7
:100AE000323936595445794D444147413155454392
:100AF00067777054476C695A5778706457306751FC
:100B0000323974645735705932466A0D61573975F8
:100B10005A584D6752476C7A64484A70596E5670FD
:100B20005A47467A49464D755443347847444157AD
:100B300042674E5642414D4D443268334C6D787099
:100B4000596D5673615856744C6D4E760D62544310
:100B500043415349774451594A4B6F5A4968766328
:100B60004E415145424251414467674550414443DB
:100B70004341516F4367674542414D6F3346696654
:100B800039426C4D4F556D47524A7853710D4A5555
:100B9000595A557050624A554C42706567627847A1
:100BA0004C706969653466547645666D6C3763735D
:100BB0006A38456848636835497457692B5A7136F5
:100BC0006D3856664F4A376B414F317678760D5502
:100BD000596D7072482B47664A586E517A4250528E
:100BE0004F72617A52753566446B3943354E6A549B
:100BF00054753750714E766D4433524C456E4157A3
:100C000076592B6B2F4237716A7166587235560DC3
:100C100049576F515363494F676E32792F5166328E
:100C20005147596637313075737750504F454D52A3
:100C30005A51316F6F394545387A79396773706C1D
:100C40005138796D31786D454E50617664762F78E4
:100C50000D35466363796A334F3047643670587494
:100C600054565A71306E35772F37714645473535B2
:100C70007352464A586E585864787A677352536470
:100C8000556B38775070675A69377230356F325903
:100C9000500D5958486E6F58304363726679505AF8
:100CA0004537776C696A59496F6B7A4878555A4C61
:100CB000764F30556E4C385A577A752B7334554CE5
:100CC00050414E61514E30335454494F387A6F5829
:100CD0006E730D437773434177454141614E544DE7
:100CE000464577485159445652304F42425945463D
:100CF000452F597576337059314C646366754435A8
:100D00007072653971464E68796E6A4D4238474156
:100D10003155640D497751594D42614146452F592E
:100D20007576337059314C646366754435707265FD
:100D30003971464E68796E6A4D4138474131556484
:100D4000457745422F7751464D414D4241663877B0
:100D50004451594A0D4B6F5A496876634E4151458B
:100D60004C425141446767454241435234567948A9
:100D70004979656F39774A5A664541592F726976C4
:100D80003279396B4B6F7252494B553575614B4D0A
:100D90004D474653300D744256342F3873424A54EF
:100DA00031366F632F504D41667059376F74385923
:100DB000364C357778546153584C344D735A4D3115
:100DC0005157442F4457656852477A44726A4A50D3
:100DD000765A454570570D78316D6F496D626143A4
:100DE000527239544847562F5767306774626D35D1
:100DF0004C3848437130575746614E4B71346C5AEA
:100E00004D554331596B4644724B713261323368F0
:100E10006F5745686968620D52784475647930513E
:100E2000656867714F49762B6D30774C4366436335
:100E30004471797743657546585261696A44456AD9
:100E400031774D572B314A56573143507877546993
:100E5000552B4150654E4D650D5434656276787161
:100E6000455072454E6D364C5943756A5A52387426
:100E70002B542F7A6C737371446965763231387AEA
:100E8000524A57696B4D4F2B4F4F6B4D6130387540
:100E90005748783367713150650D2F436B59337163
:100EA0006A6D4167567836797662766F366D446B37
:100EB000554B384D6C7A51436973624B2F434C64E8
:100EC0004F6765666B3D0D2D2D2D2D2D454E442014
:100ED00043455254494649434154452D2D2D2D2D0E
:100EE00000040FF40EED0EE90E343433002F687752
:100EF0002F70730068772E6C6962656C69756D2E52
:100F0000636F6D004745542025733F6672616D65C0
:100F10003D257320485454502F312E310D0A486F0F
:100F200073743A2025730D0A436F6E74656E742DC9
:100F30004C656E6774683A20300D0A00490F400F07
:100F400070617373776F7264005863000710570FF6
:100F5000520F0D0A0D0A0065794A30655841694FF4
:100F6000694A4B563151694C434A68624763694F3D
:100F7000694A49557A49314E694A392E65794A702C
:100F80005A434936496A51794F4464424E454A456D
:100F90004D304D784F545646516A6B694C434A70F8
:100FA000595851694F6A45334D5441354E444D7837
:100FB0004E7A51754E7A6B784E446B304C434A7082
:100FC00063334D694F694A7361574A6C62476C31AC
:100FD0006253356A6232306966512E515F644278DD
:100FE0004D5A54566C4379534759756E41363852B1
:100FF0004C564B774A614D5A473249543647435510
:1010000034786478766B00417574686F72697A61C0
:1010100074696F6E3A204265617265722000F11446
:10102000741D4D1FD01EE71939176619CD20D71F23
:1010300093194915B01F691DF31C941ED91AD115B7
:10104000F1184D1C7C21331E0B1578158D15DC20F5
:10105000FA1CEA1E3A15D31C021C941B791F0B1DA7
:10106000B821E316481F0E17031A3E1BA917432089
:101070006E1C6221D21BF31EE21BA121A7187D2248
:1010800038202416FE1AA4159821BD1C3116831B86
:101090007D1CFC20F01A8A22BD1615226B1F521CE3
:1010A0003721A31C3E1AB21A9B1574178F22111FE9
:1010B000431BF11FC01F6C1B0918A2221C22D01653
:1010C0008B1ABD1ECD1B041F01174B1D59195B1B2D
:1010D000291C511A831754201F18D91B901A5B1D05
:1010E000C216C022A91D241FC41C7216E418A62112
:1010F000B7202D18041E851D1120711855170821C1
:10110000D118FE146B172617F1151C1EAB16EE191D
:10111000B61CBE1D151ECD21C61ACD22121A641D85
:10112000182001217A1AA2208321ED1D55226B215E
:1011300097176920F91A5E17CC1FA1195C160616BD
:10114000991EC51D721FBC1B8C1CF5210F167E1825
:101150009C172C2246196B19B71FB016131C071BBE
:10116000651C35192F15BC1744172821C716AC1E4E
:101170000619B121551E8E1F2117E41F6115561D3A
:1011800000227F1EB91A2722D617E816C11761164A
:101190001B218D16EA1C671A9318941DE0198F20E5
:1011A00068229215FC1F541B3618BC18601A422185
:1011B000271A4D185015EF1B2520291DC51FC215D4
:1011C0005921921777168019401E291B4A226C1E3E
:1011D000D61DC620AB1B2618A11AF1169C164F1659
:1011E000ED202E19A018FC16341D4016E0141D1910
:1011F0005E1FB819141D1618DE216418A31F3922AA
:10120000B915E215391FE917381C9C191A15141B5A
:10121000AB22E31E241CC9197C2000188616FC147E
:10122000831D5C1FE11EEC1942176919DA20E21FC9
:101230009A194E15B51F721DF81C971EEE1AE0156F
:101240000419501C81213E1E18158B159015EB209A
:10125000091DF11E4715E81C111CA91B8C1F121D2E
:10126000CB21E6164B1F1F17101A411BBA1752202D
:101270007B1C6921D71B021FED1BA421BA188822F1
:1012800041202F16051BB7159F21C21C3E16921B2D
:101290008A1CFF20F71A8D22C0161A22701F631CA9
:1012A0004021B41C4F1AB71AA2158117A022221F81
:1012B000521BFA1FC31F811B1418A9222522E116F5
:1012C0008E1ACE1ED01B0F1F0C17541D64196A1BDB
:1012D000361C5E1A901767202418E01B9F1A621DA7
:1012E000C516CB22BC1D371FD11C7516EF18AF21B8
:1012F000C4203418131E921D16207C185C17192167
:10130000E2180915721737170416311EAE16011AA6
:10131000BB1CC31D1A1EDC21D71AD422251A671D37
:1013200023200621891AB5209621021E66227A21E1
:101330009A177A20FC1A6917D51FB6195F160D1671
:10134000AA1ED41D771FCB1BA11CFE2122169118AB
:10135000A717372257197E19BE1FBB16221C121B56
:101360006C1C44193815BF1753173521CE16BB1EF8
:101370001B19B6216A1EA11F2417EF1F7615591DD0
:101380001322921EC41A2A22E717EF16D4177016DA
:1013900026219A16F11C781A9E18A71DE519A0207F
:1013A0007B2299150F20591B4B18CF18651A57210E
:1013B0003C1A62185F15001C3620321DCA1FCF155B
:1013C0006021951784169119531E3C1B53227D1ED4
:1013D000EB1DCB20BA1B2B18B01AFA16A9165A16F9
:1013E000FA203319A518FF16491D4D16EF142C19B4
:1013F000691FC719271D1D18F3216F18AE1F48223A
:10140000C015EF15461FFE174B1C9F192D15271BE6
:10141000BE22E81E271CDE198D2007188B16631CC0
:101420004021B41C4F1AB71AA2158117A022221FFF
:10143000521BFA1FC31F811B1418A9222522E11673
:101440008E1ACE1ED01B0F1F0C17541D64196A1B59
:10145000361C5E1A901767202418E01B9F1AFC1494
:10146000831D5C1FE11EEC1942176919DA20E21F87
:101470009A194E15B51F721DF81C971EEE1AE0152D
:101480000419501C81213E1E18158B159015EB2058
:10149000091DF11E4715E81C111CA91B8C1F121DEC
:1014A000CB21E6164B1F1F17101A411BBA175220EB
:1014B0007B1C6921D71B021FED1BA421BA188822AF
:1014C00041202F16051BB7159F21C21C3E16921BEB
:1014D0008A1CFF20F71A8D22C0161A22701FD622EE
:1014E0003634616130663238386634343065003401
:1014F000003037643632306637656100330064345B
:101500003062663834363634003300363037316472
:1015100037656539666331003700623261323562A2
:10152000636232316334336566616531006500376B
:1015300064343437636331003500303664623661B9
:101540003837373132620031006530373800650096
:101550003761656531616335383231366361006307
:101560000035616536613231363930366163393381
:101570006461643162006400336132393862643618
:1015800032663638616366323862003200313800C4
:1015900063006334303462380062003038373435E9
:1015A0003800660038656539386135636137376101
:1015B00034653530613200610062326130363800A6
:1015C0003900313462353366663134333633006383
:1015D000003332663463393765326233613836003E
:1015E00038003530333237343437643935360035E6
:1015F0000035356539633336323634623665383016
:101600003464360031006462336431370061006451
:1016100032346163633532346330323737663631A2
:101620003400650062613532373935323132006657
:1016300000316366636530386265353765003900AF
:1016400037366162383533373433616300380039F7
:101650006531343937373461350065006131003721
:101660000061653134623063613431376266610034
:10167000380037350032003330633063303365363D
:10168000396535003000363463620033003662302D
:101690006537333531303331640063006536376187
:1016A00036373737663364640035003665003600F8
:1016B00032346231333334666430006400383400CD
:1016C0003400663000380066313334303300350082
:1016D000336530353036636633323836653230390B
:1016E0000065003838006300316566626236006468
:1016F0000035656266653337380038003036006380
:101700000035356365643038373866006100396408
:101710003065313831313233333433623865003536
:1017200000653100660064663863393636363064E9
:1017300064343036333500340064326464653836DE
:10174000340066003034306236663937373230362E
:1017500062610062003164366638340036003262FD
:10176000393462316361393000350031616436618A
:10177000300031006166646236333636623064367A
:10178000003100636239363334623130343636002A
:101790003500643600640038300063003139346449
:1017A0003739333037650038006131386139396293
:1017B0006162623635646165340064006233003210
:1017C00000623665353463626135663830363361C0
:1017D000396133006400383031336432343261347B
:1017E0006565396265630034003161336165366374
:1017F0003365636631323433646436313600350024
:101800003730626130350038003039356261393344
:10181000376430006300666139633362003400323C
:1018200030336600380033356234003400376539B0
:1018300034383000350036656534366538373966FA
:101840003237353434346231343100650064663502
:101850006138313236353034373665663064623857
:1018600034003200643563356631386435660038DB
:1018700000663135616338623063320036003161B1
:1018800038393965303161396266366532313364F1
:1018900000310065633534613862393166003900E2
:1018A00036623462006100376138626162653236E7
:1018B00064376662666537653100370061396537C0
:1018C00063653632633562363938656134310032EA
:1018D0000064316536653837623237343661353801
:1018E0003800340066323236303037356563006494
:1018F00000373065326439363464316232653361C1
:101900006464350035003838303030343139633074
:101910003566346662333839653400330061636498
:101920003563646439643863666637006600363848
:1019300032650035003861663531323765633433DE
:1019400032623700350065353461623964303034D5
:1019500064303035353800610032366161383138F5
:10196000323064003000313500360066356661384B
:101970006434366137353338383464633900610094
:10198000316437616163666337366239396334378E
:1019900000360066303638306300360031320031B0
:1019A0000034316331653734373466383231373794
:1019B00031343963330034003130396433393139EB
:1019C000386563313538006400333033376266661A
:1019D000653731343938376136623366640039002F
:1019E00038353735003700316166610033006539BD
:1019F0003834363662323730303164303234323156
:101A00000035003533346662303165373963300074
:101A1000640064623235373465616633316335663C
:101A20003239626500630063306362663438323194
:101A300063653033626534646339350033003538AB
:101A40003133323839656464366265346330006539
:101A500000653431393564393863613031006300F1
:101A60003731393200660064363363623162663280
:101A70003430393536363200340063306338373726
:101A800038366232663265640064003430003000FB
:101A900032363833663439303039363739320037F8
:101AA000003766646437333135346261646136000F
:101AB000330066323236003900356562656138328E
:101AC000643061006200633261386534646430669A
:101AD00062323338626400660034653235376562DD
:101AE00038333564643134666439313862006300F8
:101AF0006533356461350062003265006100343061
:101B000066363563006500393935373864643161CC
:101B1000300061003334383733356239376232632D
:101B20006136383964320065003439386233373908
:101B3000303633353637373864653400610030610C
:101B400000370031623536303065613362623338D8
:101B50006600380036396234003000323035653383
:101B60006639666634316162660031003031643551
:101B7000633531343531306339623561666430390B
:101B80000032006331626234636235333437653268
:101B900065003500356132303961303965393830AA
:101BA0003636626661323962003300353834366564
:101BB00065643862376438663400360061636439BE
:101BC00061363234313630323135006100636500C0
:101BD00065003765333300390061303834393800F7
:101BE000610035343264363861636238006400382D
:101BF000393364366434306136616532656663005A
:101C00003900383563646535366464316231633573
:101C10000035003130323936663530623630633760
:101C20006300320039660061003931643530623753
:101C300062323435320063006331366161643939B0
:101C40003135636236383939336200300039340057
:101C50003400646661343839303639643032616159
:101C6000306500610036373034373600380038319F
:101C70003562646438353832336100380064363296
:101C800066633134396461363100330035333831BD
:101C90006632356263653262336432623266623262
:101CA0000062006338383633643366303532396663
:101CB0003131360039006466643900660063386586
:101CC00061003800663731626264623931633539E8
:101CD0000064003931316134613565623335653016
:101CE000336631633530330036003063623031663D
:101CF00000610031376463003800373533353265B1
:101D0000383034666364393500340032313531643B
:101D100065003900633833653838353135613966E7
:101D200033373765383300340062636663633736B0
:101D300033003200623134616164633964393131B6
:101D400037653333346232370038003632656434F5
:101D5000303365003200613000630037366434345C
:101D60003100630062310030003635663965383243
:101D700034003100316539383235316132386262D0
:101D80006363003900393062346265393530326559
:101D9000370039003163353130646133653861347F
:101DA00061373361616300340062643830356164E7
:101DB0003539656136643630323539006200653058
:101DC00031310065003636626565656231353862ED
:101DD000376233003900386262386530663237382E
:101DE00038313866393435353831003800303330E1
:101DF00030363638663661383766653035613230B0
:101E0000350033006432636633313330343338396C
:101E10006537006200393866390030006635393977
:101E200064373364623261653232643465646433CA
:101E300000660035376465346162653961003000E1
:101E400036366435393365306130393835383130BC
:101E50006661003400623736663466623435643950
:101E60003738333437643766330036003832393028
:101E700036653163636162626534316500350063E4
:101E800065633764363262306665353130363266C6
:101E9000340033003639003800363731663537398B
:101EA00035646131323931363900330031366433CB
:101EB00065323231623832633362006100616566D7
:101EC000363864373863616361393130310064001A
:101ED0003261366233303132393536653436396401
:101EE000003100396236320062003037356161629C
:101EF0000061003162313132363466313937656321
:101F00006600320035313134323965316661003076
:101F10000031623762623261386666396330336439
:101F2000350031006266646130336436366337638E
:101F30003762303831320034003737306239643735
:101F40003139373861003200653600650035626529
:101F500031323432333965356336320063003761EC
:101F60003564323864333036003500303531640042
:101F7000650032316564003000646631643964386C
:101F8000376336303235363565653900650062387D
:101F900034363265616539323861643330336332E7
:101FA0000062003834323663386435303700380028
:101FB00061383265003000656231653331003200CE
:101FC0003730003000623332300033003733396449
:101FD000393436310062003262656433613038650D
:101FE0003200340037643338326465306365006230
:101FF00000366634316263353200640035666662ED
:1020000038343333376433396164303762350062D2
:102010000065343762003600373665363036653451
:10202000316600390066363737633166373230350E
:102030003437613666003900363262363662323500
:1020400000390036663932313130396261323963F4
:10205000300039003566303334363734336264301B
:102060006234666637650036003463623662623514
:1020700038326430393165386100620038353435C2
:1020800034336661613565383932333200350031B9
:10209000333036643763623063633632386431001C
:1020A000300033346635303762643638643538662C
:1020B0003039376600390065653339653535336544
:1020C00062363300310066366538003600653534D7
:1020D00063313338303963333200320030653334A2
:1020E0006664373565373430356100350032376125
:1020F0003738386164666666660066006635006477
:1021000000613465640066003765383561633939CC
:1021100031656436653135380066003536626134C4
:1021200039373436340066003062623163356465B5
:10213000383931610038003931326336383861005E
:102140003800376635626462373962376266383420
:1021500035376232613100640066336233643900BE
:102160003100616434303965006400306239636481
:1021700033323966383838383700650061316339B1
:1021800000390066396239343462343063313630B4
:1021900063646331380038006231393432610039A8
:1021A0000066320036003139613330376137003034
:1021B0000061373536003800373736383935343531
:1021C00066376536666535356138006400336630DC
:1021D0003366633961326664303230006100333215
:1021E00061356563326464633266643962626138A2
:1021F000633600340034656131336166390065004F
:1022000066613132613038323030613231653330BD
:102210003263003500663432620037003338396289
:10222000303738300036006565006200373334627D
:1022300036303362376500630032323139636666A7
:1022400032613433616262003400623936343038CE
:10225000333300330061616463653634336461365F
:1022600062323434630062003235303533396630DF
:1022700063326133663264333466003300303532A2
:1022800066376466633532006300373700360032E4
:102290003634366434393163396430356130640042
:1022A0003400636331326465003600663835633666
:1022B000616138383138653936383939350066006A
:1022C000373661636164323135360064006435301D
:1022D00032656400320032666463613432623436DF
:1022E000353831326633623664356435623962635B
:1022F0003533613039310052096AD53036A538BFDF
:1023000040A39E81F3D7FB7CE339829B2FFF873468
:102310008E4344C4DEE9CB547B9432A6C2233DEE07
:102320004C950B42FAC34E082EA16628D924B276EA
:102330005BA2496D8BD12572F8F66486689816D435
:10234000A45CCC5D65B6926C704850FDEDB9DA5E68
:10235000154657A78D9D8490D8AB008CBCD30AF747
:10236000E45805B8B34506D02C1E8FCA3F0F02C1F2
:10237000AFBD0301138A6B3A9111414F67DCEA97B5
:10238000F2CFCEF0B4E67396AC7422E7AD3585E2B9
:10239000F937E81C75DF6E47F11A711D29C5896F81
:1023A000B7620EAA18BE1BFC563E4BC6D279209AC5
:1023B000DBC0FE78CD5AF41FDDA8338807C731B1E2
:1023C0001210592780EC5F60517FA919B54A0D2D75
:1023D000E57A9F93C99CEFA0E03B4DAE2AF5B0C8CB
:1023E000EBBB3C83539961172B047EBA77D626E169
:1023F00069146355210C7D01020408102040801BE4
:1024000036637C777BF26B6FC53001672BFED7ABF1
:1024100076CA82C97DFA5947F0ADD4A2AF9CA472A6
:10242000C0B7FD9326363FF7CC34A5E5F171D8311E
:102430001504C723C31896059A071280E2EB27B24A
:102440007509832C1A1B6E5AA0523BD6B329E32F71
:102450008453D100ED20FCB15B6ACBBE394A4C58A5
:10246000CFD0EFAAFB434D338545F9027F503C9F07
:10247000A851A3408F929D38F5BCB6DA2110FFF326
:10248000D2CD0C13EC5F974417C4A77E3D645D1951
:102490007360814FDC222A908846EEB814DE5E0B12
:1024A000DBE0323A0A4906245CC2D3AC629195E47F
:1024B00079E7C8376D8DD54EA96C56F4EA657AAECA
:1024C00008BA78252E1CA6B4C6E8DD741F4BBD8B58
:1024D0008A703EB5664803F60E613557B986C11D50
:1024E0009EE1F8981169D98E949B1E87E9CE5528F4
:1024F000DF8CA1890DBFE6426841992D0FB054BB16
:10250000163D3D3E204552524F5220434F44453ADE
:102510002000AA269B2693269026882682267E26A1
:10252000642655264D263D2630262C262626FA25BD
:10253000EA25E325DF25D925D325CD25C725BE25C9
:10254000BB25B525B125A2259225822572256225B8
:10255000522541542B694D4143413F0D0A25730DCE
:102560000A0041542B69574C53493F0D0A25730DFE
:102570000A0041542B69444E53323F0D0A25730D16
:102580000A0041542B69444E53313F0D0A25730D07
:102590000A0041542B69534E45543F0D0A25730DD3
:1025A0000A0041542B694950473F0D0A25730D0A13
:1025B00000256429000D0A2E0D0A00202C00564526
:1025C0005253494F4E3A0053495A453A00504154EC
:1025D000483A0046494C453A00492F300D0A002040
:1025E0002C29002573253031750041542B69217247
:1025F0007031300D0A492F4F4B0025303275253090
:1026000032752D253032752D2530327554253032F6
:10261000753A253032753A253032752B25303275B2
:102620003A2530327500492F25753A002575290065
:10263000257325733A25732C256C753A0022257372
:102640003A2F2F25733A25732F25732200302E3011
:102650002E302E300041542B694950413F0D0A2540
:10266000730D0A0041542B69525031300D0A492F25
:102670002825752C25752C25752C25752900290DE7
:102680000A00256C750D0A004552524F5220280051
:102690000D0A00492F256C750D0A00492F4552522D
:1026A0004F5220282575290D0A002028257529005C
:1026B0009D289A28952890288C28882884287F2867
:1026C0007B2876284A283A28352831282C2828289B
:1026D00023281E28192814280F280A28052800282E
:1026E000FB27F627F127ED27E927E327DE27D92760
:1026F000D427CF27CA27C627C127BC27B827B32787
:10270000AE27A927A4279F279B27972793278D27A5
:10271000892784277F277A27772773276E276927BA
:10272000652760275B27562751274C2747274327D4
:102730003F273B2736274D4143410053534C00521E
:102740005031002D2D2D004450535A005354415008
:1027500000464F50530057505349005753524800BA
:102760005753524C0046444C004643574400464D94
:102770004B440043545400434100574C50570057BA
:10278000524F4D00525032300057534900215250A1
:10279000313000525034002B2B2B00525038004760
:1027A0004D544F004E544F44004E545332004E543B
:1027B000533100534E45540049504700444E533264
:1027C00000444E5331004449500053434C5300538E
:1027D0004653480053444D500047504E4D0053520D
:1027E00043560053534E4425005343530053535410
:1027F000004C535354004C54435000535544500024
:10280000535443500046434C460046534E44004602
:1028100041504E004653544F0042445241004643FB
:102820004C5300465243560046535A00464F504EB2
:102830000055524C00534C4E4B002225733A2F2F1B
:1028400025733A25732F257322002225733A2F2FE3
:1028500025733A25732F676574706F73745F6672A2
:10286000616D655F7061727365722E7068703F662E
:1028700072616D653D00524C4E4B00495041005015
:10288000494E470057505000574B5900575354007A
:10289000444F574E00574C53490046440052503164
:1028A0003000207673207573657220736179732010
:1028B000003A20617069207361797320004572725B
:1028C0006F722073656E736F722074797065202645
:1028D000206E6669656C6473206D69736D617463E5
:1028E0006820666F7220696E64657820005B4652CE
:1028F000414D455D2000207673207573657220730D
:1029000061797320003A20617069207361797320C6
:10291000004572726F722073656E736F72207479E6
:102920007065206D69736D6174636820666F7220D5
:10293000696E64657820005B4652414D455D20001C
:1029400020767320003A20004572726F7220736502
:102950006E736F722074797065206D69736D617428
:10296000636820666F7220696E64657820005B463C
:1029700052414D455D2000030303030303030000A0
:10298000000000030303030303030303020000002A
:10299000000000000000030300000300000000002E
:1029A0000000000000000000000000000600000021
:1029B0000000000000020000000000000004040409
:1029C0000002020102000000000000000000000000
:1029D00002020203030300000000000101010101E3
:1029E00001010101010101010101010101010101D7
:1029F00001010101010101010101010101010101C7
:102A000001010101010101010101010101010101B6
:102A100001010101010101010101010101010101A6
:102A200001010101010000000000000000000000A1
:102A30000000000000000000020000000000000193
:102A40000101010101010101010101010101010176
:102A50000101010101010101010101010101010166
:102A60000101010101010101010101010101010156
:102A7000010101010201010101030301010103013F
:102A80000101010101010101000101010101010137
:102A90000101010101010101010101010101010126
:102AA0000101010101010101010101010101010116
:102AB0000101010101010101010101010101010106
:102AC00001010101010101010101010101010101F6
:102AD00001010101010101010101010101010101E6
:102AE00001010101010101010101010101010101D6
:102AF0000101010101010101010101010118100899
:102B000001010101010101020202020202020000B0
:102B100000000002020202020202020202000000A1
:102B2000000000000000020200000200000000009F
:102B3000000000000000000000000000020103038C
:102B4000030000010102010403000003030202026A
:102B50000002020202040100000000000000000068
:102B6000020202020202040000000002020202024B
:102B70000202020202020202020202020202020235
:102B80000202020202020202020202020202020225
:102B90000202020202020202020202020202020215
:102BA0000202020202020202020202020202020205
:102BB000020202020200000000000000000000000B
:102BC000000000000001010102000000000000619F
:102BD000305D305A30563053304F304B30483044EF
:102BE0003040303D303930353031302D30293023D0
:102BF000302230213020301F301E301D301C301B61
:102C0000301A301930183017301630153010300B9C
:102C1000300A30093004300330023001300030FF18
:102C20002FFE2FFD2FFC2FFB2FFA2FF92FF82FF758
:102C30002FF62FF52FF42FF02FEC2FE72FE32FE0B7
:102C40002FDC2FD72FD22FCE2FCA2FC22FBE2FB7B8
:102C50002FB32FB22FB12FAD2FAA2FA62FA02F9BAE
:102C60002F9A2F972F942F902F8B2F872F842F837E
:102C70002F822F812F802F7F2F7E2F7D2F7C2F7BE8
:102C80002F722F682F642F5F2F5A2F552F512F50DF
:102C90002F4B2F452F3F2F3B2F372F332F2F2F2BEE
:102CA0002F272F232F1F2F1B2F172F132F0F2F09E6
:102CB0002F032FFD2EF72EF12EEB2EE52EDF2ED932
:102CC0002ED32ECD2EC72EC12EBB2EB52EAF2EABA2
:102CD0002EA72EA32E9F2E982E912E8A2E832E7CE9
:102CE0002E752E6E2E672E602E592E522E4B2E4490
:102CF0002E3D2E362E2F2E282E212E1A2E132E0C40
:102D00002E052EFE2DF72DF02DE92DE22DDB2DD6F3
:102D10002DD12DCC2DC72DC32DBF2DBB2DB72DB340
:102D20002DAF2DAB2DA72DA32D9F2D942D932D923F
:102D30002D912D902D8F2D8E2D8D2D8C2D8B2D8ABF
:102D40002D892D882D872D862D852D7E2D762D6E16
:102D50002D652D642D632D622D612D602D5F2D005D
:102D600000000000004E4F4953455F563200504D61
:102D70005F42494E4800504D5F42494E4C00504D15
:102D80005F42494E0000000000000000000000000B
:102D900000000000494E545F504552494F44004CDA
:102DA0003939004C3930004C3830004C3730004C49
:102DB0003630004C3530004C3430004C3330004C51
:102DC0003230004C3130004C5A4551004C43455193
:102DD000004C424551004C414551004C5A50454130
:102DE0004B004C435045414B004C425045414B0039
:102DF0004C415045414B004C5A494D494E004C5AAC
:102E0000534D494E004C5A464D494E004C43494D96
:102E1000494E004C43534D494E004C43464D494E9C
:102E2000004C42494D494E004C42534D494E004CD6
:102E300042464D494E004C41494D494E004C41538C
:102E40004D494E004C41464D494E004C5A494D416A
:102E500058004C5A534D4158004C5A464D41580069
:102E60004C43494D4158004C43534D4158004C434D
:102E7000464D4158004C42494D4158004C42534D3B
:102E80004158004C42464D4158004C41494D415833
:102E9000004C41534D4158004C41464D4158004C67
:102EA0005A45004C4345004C4245004C4145004CBE
:102EB0005A53454C004C4353454C004C4253454CEF
:102EC000004C4153454C004C5A495344004C5A5312
:102ED0005344004C5A465344004C43495344004C1D
:102EE00043535344004C43465344004C42495344DB
:102EF000004C42535344004C42465344004C414919
:102F00005344004C41535344004C41465344004CFD
:102F10005A49004C5A53004C5A46004C4349004C05
:102F20004353004C4346004C4249004C4253004C32
:102F30004246004C4149004C4153004C414600562A
:102F4000424F4F54005650524F470056415049008F
:102F5000005453540050444F500056444F500048C2
:102F6000444F5000414C5400434F555253455F4F1E
:102F7000470053504545445F4F47000000000000A4
:102F8000000000005553004C555800505245530066
:102F900048554D0054460054430000504D31300018
:102FA000504D325F3500504D31005242005549447A
:102FB000000000535452004D494C4C4953004143CA
:102FC0004300494E5F54454D500052414D00474D1E
:102FD000540054494D450044415445004E49440075
:102FE0004E41004D41430052535349004750530056
:102FF00042415400000000000000000000000000FA
:103000000000000047505F4600000047505F43004B
:1030100047505F4200000000000000000000000078
:103020000000004E4F49534500534F320050483383
:103030000048434E0048434C004832530048320099
:1030400045544F00434C32004E4F004E4F32004E1D
:103050004833004F3300434834004F3200434F326F
:1030600000434F00020201020202010200000000C0
:103070000202020202020202020202020202020230
:103080000202020202020202020202020202000024
:10309000000000000000000000060000000000002A
:1030A000000002000000000000000404040002020E
:1030B0000102000000000000000000000002020207
:1030C00003030300000000000000000000000000F7
:1030D00000000000000000000000000000000000F0
:1030E00000000000000000000000020202020202D4
:1030F00002020202020202020202020202020202B0
:10310000020202020202020202020202020202029F
:10311000020202020202020202020202020202028F
:10312000020202020202020202020202020202027F
:10313000020202020202020202020202020202026F
:10314000020202020202020202030303030101015E
:10315000020202010101010101010101010101015C
:10316000010101010101010101010101010101014F
:10317000010101010101010101010101010202033B
:103180000301010101010101020101010103030128
:10319000010103010101010101010101020101011C
:1031A000010101010101010101010101010101010F
:1031B00001010101010101010101010101010101FF
:1031C00001010101010101010101010101010101EF
:1031D00001010101010101010101010101010101DF
:1031E00001010101010101010101010101010101CF
:1031F00001010101010101010101010101010101BF
:1032000001010101010101010101010101010101AE
:10321000010101010101010101010101010101019E
:10322000010101010101010101010101010101018E
:10323000010101010101010101010101010101017E
:10324000010102020202020202020404010102025E
:10325000020202020202020202020202020202024E
:103260000202020202020202020202020101010142
:10327000010101000001000201030303000001013C
:10328000020104030000030302020204020202021C
:10329000040100000000000000000003030302021C
:1032A000020000000000000000000000000000001C
:1032B000000000000000000000000000000400000A
:1032C00000000000000000000202020202020202EE
:1032D00002020202020202020202020202020202CE
:1032E00002020202020202020202020202020202BE
:1032F00002020202020202020202020202020202AE
:10330000020202020202020202020202020202029D
:10331000020202020202020202020202020202028D
:10332000020202020202020202020202020202027D
:10333000025C39573951394A39453940393A3933BC
:10334000392D39273922391D39173911390B3905EA
:1033500039FF38FA38F538F038EB38E638E138DC40
:1033600038D738D238CD38C838C338BE38B938B471
:1033700038AE38A7389E3896388F38883881387BF1
:103380003874386E3865385F38593853384C384699
:103390003840383A3834382E382A38263821381D03
:1033A000381A38163811380C3808380438FC37F811
:1033B00037F137ED37EC37EB37E737E437E037DA1B
:1033C00037D537D037CD37CA37C637C137BD37BA0B
:1033D00037B937B837B737B637B537B437B337B289
:1033E00037B137A8379E379A37953790378B378A5A
:1033F00037893788378737863785378437833782E9
:1034000037813780377F377E377D377C377B377A18
:103410003779377837773776377537743773377248
:1034200037713770376F376B376A3765375F3759A2
:10343000375637553754375337523751374B37454F
:10344000373F37393733372E37293724371F371A65
:1034500037153710370B3706370137FC36F736F29A
:1034600036ED36E836E236DC36D636D036CA36C5E4
:1034700036C036BB36B636B136AC36A736A2369D28
:1034800036983693368E36893684367F367936735B
:10349000366D36673661365C36573652364D3648AD
:1034A0003643363E36393634362F36293623361DE6
:1034B00036173611360B360536FF35F935F335ED4F
:1034C00035E735E135DB35D535D035CB35C635C1BA
:1034D00035BC35B635B035AA35A4359E3599359409
:1034E000358F358A35853580357B35763571356C48
:1034F00035663560355A3554354E35483542353C9C
:1035000035363530352A3524351E3516350F3545D7
:103510004D5F42474100454D5F5455524200544370
:10352000375F44005443375F43005443375F4200E2
:103530005443375F41004449535F44004449535F5B
:1035400043004449535F42004449535F410054469D
:10355000415F45005446415F44005446415F43008B
:103560005446415F42005446415F410053535F451A
:103570000053535F440053535F430053535F420073
:1035800053535F410053425F450053425F44005331
:10359000425F430053425F420053425F4100544345
:1035A000365F45005443365F44005443365F430062
:1035B0005443365F42005443365F410043555F45F4
:1035C0000043555F440043555F430043555F42004D
:1035D00043555F41005341315F45005341315F44E2
:1035E000005341315F43005341315F420053413149
:1035F0005F4100434E315F4500434E315F4400431D
:103600004E315F4300434E315F4200434E315F41D4
:10361000005443355F45005443355F4400544335FF
:103620005F43005443355F42005443355F410054CB
:103630004D5F4500544D5F4400544D5F4300544D71
:103640005F4200544D5F4100544E5F4500544E5F51
:103650004400544E5F4300544E5F4200544E5F415D
:10366000005443345F45005443345F4400544334B2
:103670005F43005443345F42005443345F4100547D
:10368000445F450054445F440054445F4300544445
:103690005F420054445F410053415F450053415F26
:1036A000440053415F430053415F420053415F4137
:1036B00000434E5F4500434E5F4400434E5F43006E
:1036C000434E5F4200434E5F41005443335F450029
:1036D0005443335F44005443335F43005443335FE8
:1036E00042005443335F4100504D5F4500504D5FF1
:1036F0004400504D5F4300504D5F4200504D5F41CC
:103700000052585F450052585F440052585F4300D2
:1037100052585F420052585F410050485F45005088
:10372000485F440050485F430050485F42005048A3
:103730005F41005443325F45005443325F440054BC
:1037400043325F43005443325F42005443325F418F
:1037500000000000000050530056424F4F540056E6
:1037600050524F47005641504900005453540000F6
:103770000000000000000000000000000000000049
:10378000000000000000000000000050444F500006
:1037900056444F500048444F5000414C5400434F52
:1037A000555253455F4F470053504545445F4F477F
:1037B000000000000000000000005553004C555868
:1037C00000505245530048554D00544600544300A4
:1037D0005041525400504D313000504D325F350051
:1037E000504D31005242005549440000005354529C
:1037F000004D494C4C49530041434300494E5F54EE
:10380000454D500052414D00474D540054494D45DF
:103810000044415445004E4944004E41004D41434F
:103820000052535349004750530042415400434211
:103830005F46500043425F54500043425F464C0095
:1038400043425F46520043425F56530043425F5239
:10385000504D004D425F4952004D425F4852004D6D
:10386000425F4449004D425F434F494C5300454D30
:103870005F544300454D5F48444F00454D5F434C06
:1038800000454D5F4E4F3300454D5F4E4834004577
:103890004D5F43484C00454D5F434F4E4400454DFE
:1038A0005F444550544800454D5F4F525000454DD0
:1038B0005F5048004F505F45004F505F44004F50ED
:1038C0005F43004F505F42004F505F41004F4D5FDC
:1038D00045004F4D5F44004F4D5F43004F4D5F42E9
:1038E000004F4D5F41004F535F45004F535F440011
:1038F0004F535F43004F535F42004F535F410054AB
:1039000043315F45005443315F44005443315F43CA
:10391000005443315F42005443315F410055535FCF
:10392000440055535F41004C55585F44004C555876
:103930005F4100505245535F440048554D5F44007D
:1039400054465F440054435F4400505245535F4126
:103950000048554D5F410054465F410054435F416C
:103960000002020102020201020000000004020241
:103970000202020202020202020203030303030420
:103980000404040303030303030303000000000211
:103990000202020202000600000000000000000215
:1039A0000000000000000004040400020201020004
:1039B00000000000000000000000020202030303F8
:1039C00000000001010102000202020202020202E2
:1039D00002020202020202020202020200000000CF
:1039E00000000202000000030303030101010104BF
:1039F00004040402020202000000000202020202A9
:103A00000202020202020201010101030303030197
:103A10000101010101010102020202010101010192
:103A20000101010303030303030303020202020172
:103A30000101010000020200020003030000000077
:103A40000000000100000200000000000000010171
:103A50000100010102010100000202020000000257
:103A60000001010101010101010101010101010147
:103A70000101010101010101010101010101010136
:103A80000101010101010101010101020203030120
:103A90000101010101010201010101030301010111
:103AA0000301010101010101010102010101010103
:103AB00001010101010101010101010101010101F6
:103AC00001010101010101010101010101010101E6
:103AD00001010101010101010101010101010101D6
:103AE00001010101010101010101010101010101C6
:103AF00001010101010101010101010101010101B6
:103B000001010101010101010101010101010101A5
:103B10000101010101010101010101010101010195
:103B20000101010101010101010101010101010185
:103B30000101010101010101010101010101010175
:103B40000101010101010101010101010101010165
:103B50000101010101010101010101010101010155
:103B60000102020202020202020404010102020234
:103B70000202020202020202020202020202020225
:103B80000202020202020202020202010101010219
:103B9000020202020200020103030300000101020B
:103BA00001040300000303020202040202020204F1
:103BB00001000000000000000000030303020202F5
:103BC00001010102020202000202020202020202DA
:103BD00002020202020202020202020204000000C9
:103BE00000000202000000020202020202020202BF
:103BF00002020202020202020202020202020202A5
:103C00000202020202020202020202020202020294
:103C10000202020202020202020202020202020284
:103C20000202020202020202020202020202020274
:103C3000020202010102020102030202000101016B
:103C4000020202020301020303030303030302024D
:103C50000201020202020202010202020103010247
:103C600003AA43A5439F43984393438E43884381CC
:103C7000437B43754370436B43684363435E4359DF
:103C80004354434E43484342433C43374332432D1E
:103C9000432843254322431F43194313430D43073E
:103CA000430143FB42F542EF42E942E342DD42D7A2
:103CB00042D142CB42C242BC42B642B042A942A229
:103CC000429B4294428E428842844280427B4277A9
:103CD00042744270426B42664262425E42564252B7
:103CE000424B4247424642454241423E423A4234BA
:103CF000422F422A422742244220421B42174214AA
:103D00004213421242114210420F420E420D420C27
:103D1000420B420242F841F441EF41EA41E541E100
:103D200041D941D141CD41C941C541C141BD41B751
:103D300041B141AB41A5419F41994192418B4184A1
:103D4000417D41774171416B4165415F415941532B
:103D5000414D41474141413D413C41374131412B7A
:103D600041284122411C411B411A41194114410F74
:103D7000410A410541FF40F940F340ED40E740E191
:103D800040DB40D540CF40C940C340BD40B740B103
:103D900040AB40A5409F40994093408D4087408173
:103DA000407B4075406F40694063405D40574051E3
:103DB000404B40454040403B40364031402B402541
:103DC000401F40194014400F400A4005400040FB8E
:103DD0003FF63FF13FEC3FE73FE23FDD3FD73FD1CA
:103DE0003FCB3FC53FBF3FB93FB33FAD3FA83FA328
:103DF0003F9E3F993F933F8D3F873F813F7B3F757C
:103E00003F6F3F693F663F623F5F3F5B3F563F51B9
:103E10003F4D3F4A3F473F433F3F3F3A3F353F32A9
:103E20003F2F3F2C3F283F253F1F3F183F113F0AA0
:103E30003F043FFE3EF83EF23EEC3EE43EDA3ED129
:103E40003ECB3EC43EBE3EB83EB23EAB3EA53E9FDC
:103E50003E973E8E3E863E7D3E753E6F3E683E619D
:103E60003E4750535F5354004750535F53500047F1
:103E700050535F48004750535F4C4F4300475053E7
:103E80005F47444952004750535F475350004750E3
:103E9000535F41435350004750535F4353500048D2
:103EA000495F57530057435F5753005742545F577A
:103EB000530041445F57530041485F5753004450FB
:103EC0005F57530054454D5F57530052485F575357
:103ED0000050524553535F57530050524553534C73
:103EE0005F575300505245535F57530054415F573B
:103EF0005300544E5F57530054435F575300505381
:103F00005F57530053545F575300534E545F5753FA
:103F1000005352545F5753005353485F5753005355
:103F2000525F57530053540053564F005A4F005995
:103F30005400585400434D505300414357440043EC
:103F400057440050535400504900505400575353A5
:103F500000415747530041574744004157530057CA
:103F60005300415744005744005443375F440054C2
:103F700043375F43005443375F42005443375F4148
:103F8000004450335F44004450335F430044503397
:103F90005F42004450335F41004C545F44004C5436
:103FA0005F43004C545F42004C545F410042543226
:103FB0005F44004254325F43004254325F42004249
:103FC00054325F41005443365F44005443365F43EC
:103FD000005443365F42005443365F410057505F00
:103FE000440057505F430057505F420057505F41B5
:103FF0000041505F440041505F430041505F420028
:1040000041505F410052485F440052485F430052B4
:10401000485F420052485F41005443355F440054BA
:1040200043355F43005443355F42005443355F419D
:104030000056505F440056505F430056505F4200A8
:1040400056505F41005443345F44005443345F434F
:10405000005443345F42005443345F4100454332CF
:104060005F44004543325F43004543325F420045B1
:1040700043325F41004450325F44004450325F435A
:10408000004450325F42004450325F410054433399
:104090005F44005443335F43005443335F42005452
:1040A00043335F41004543315F44004543315F4343
:1040B000004543315F42004543315F410044503188
:1040C0005F44004450315F43004450315F4200443C
:1040D00050315F41004D56325F44004D56325F43D0
:1040E000004D56325F42004D56325F41005443321C
:1040F0005F44005443325F43005443325F420054F4
:1041000043325F4100434F5F4400434F5F430043EE
:104110004F5F4200434F5F41000000005443385F4F
:1041200044005443385F430050530056424F4F54AD
:10413000005650524F4700564150490000545354C6
:10414000005443385F42005443385F4100454333D5
:104150005F44004543335F43004543335F420045BE
:1041600043335F41004450355F44004450355F4362
:10417000004450355F42004450355F41005657437C
:10418000325F4400565743325F4300565743325F15
:104190004200565743325F41005443375F44005456
:1041A00043375F43005443375F42005443375F4116
:1041B000004450345F44004450345F43004E434E4B
:1041C0000050534800575350005054430045544347
:1041D000005343325F524144005343315F524144E4
:1041E000005241440050444F500056444F50004844
:1041F000444F5000414C5400434F555253455F4F7C
:10420000470053504545445F4F4700000000000001
:10421000000000005553004C5558005052455300C3
:1042200048554D00544600544300504152540050EC
:104230004D313000504D325F3500504D310052420B
:1042400000554944000000535452004D494C4C491C
:10425000530041434300494E5F54454D5000524185
:104260004D00474D540054494D45004441544500CC
:104270004E4944004E41004D4143005253534900C2
:1042800047505300424154004450345F4200445070
:10429000345F4100565743315F4400565743315F06
:1042A0004300565743315F4200565743315F410048
:1042B0004D425F4952004D425F4852004D425F44BB
:1042C00049004D425F434F494C53004254315F44D3
:1042D000004254315F43004254315F420042543146
:1042E0005F41004D56315F44004D56315F43004DF4
:1042F00056315F42004D56315F41005443315F44B7
:10430000005443315F43005443315F420054433112
:104310005F41004355525F42004355525F4600469D
:10432000440053440054440055565F460055565FC0
:10433000450055565F430055565F42005041525F5D
:1043400046005041525F45005041525F430050418A
:10435000525F420053525F460053525F4500535232
:104360005F430053525F42004C570055535F440077
:1043700055535F41004C55585F44004C55585F41C0
:1043800000505245535F440048554D5F4400544629
:104390005F440054435F4400505245535F4100481E
:1043A000554D5F410054465F410054435F41000357
:1043B00003030303030303030303030303030303CD
:1043C00003030303020000000000000000030303D6
:1043D00003030300000000030000000000000000D1
:1043E00000000000060000000000000000020000C5
:1043F00000000000000404040002020102000000AA
:10440000000000000000000002020203030300009D
:104410000000000303030303030303030303030375
:10442000030303030303030303030000000000006E
:104430000602030101020102020303000000000062
:104440000000000000020202020203020002020257
:10445000020203030302020200020103000003033D
:104460000303000000000000000000000000000046
:10447000020202000002000101010101010101012B
:10448000010101010101010101010101010101011C
:10449000010101010101010101010101010101010C
:1044A00001010101010101010101010102010101FB
:1044B00001030301010103010101010101010101E6
:1044C00002010101010101010101010101010101DB
:1044D00001010101010101010101010101010101CC
:1044E00001010101010101010101010101010101BC
:1044F00001010101010101010101010101010101AC
:10450000010101010101010101010101010101019B
:10451000010101010101010101010101010101018B
:104520000101010101010101010101020203030175
:10453000010101010118100801010101010101023D
:10454000020202020202020202020202020202024B
:10455000020202020200000000000000000202024B
:104560000202020000000002000000000000000043
:104570000000000002010303030000010102010426
:104580000303030303020202040202020204010005
:10459000000000000000000002020202020200000F
:1045A00000000002020202020202020202020202F1
:1045B00002020202020202020000040000000000E7
:1045C00002020202020202020202020000000000D5
:1045D00000000000000202020202020200020202C7
:1045E00002020202020202020002020200000202B1
:1045F00002020001010101010101000001010101AC
:1046000002020204040200D74AD34AD04ACC4AC963
:104610004AC54AC14ABD4AB94AB54AB24AAE4AAB8E
:104620004AA74AA34AA04A9C4A984A944A904A8C6C
:104630004A864A854A844A834A824A814A804A7F16
:104640004A7E4A794A744A6F4A6E4A6D4A684A6796
:104650004A664A654A644A614A5D4A5A4A574A521A
:104660004A4E4A494A444A3F4A3A4A354A344A300D
:104670004A2C4A274A234A204A1C4A174A124A0E01
:104680004A0A4A024AFE49F749F349F249F149ED1B
:1046900049EA49E649E049DB49D649D349D049CC02
:1046A00049C749C349C049BF49BE49BD49BC49BBC7
:1046B00049BA49B949B849B749AE49A449A0499B43
:1046C000499649914990498F498E498D498C49862F
:1046D0004980497A4973496D49674961495B495441
:1046E000494E49484942493C4935492D49284922C2
:1046F000491C49164910490A49094908490449030E
:1047000049FE48F848F248EF48EB48E848E448E1F9
:1047100048DC48D948D448CF48CA48C448BE48BDF8
:1047200048BC48BB48BA48B948B848B748B648B585
:1047300048B448AE48A848A2489B48944891488D40
:10474000488A48854880487B487748744871486E55
:10475000486B4864485D485648554851484C48485D
:10476000484748464840483A4834482E482D48244F
:10477000481E48184812480B480548FF47F947F3B8
:1047800047ED47E647DE47D647CE47C747BE47B661
:1047900047A8479E479747524553554C54005448A5
:1047A000524553484F4C440046455645525F434F8F
:1047B000554E54455200434F554E544552005349AF
:1047C0003442315F5443004149525F5443005553D2
:1047D00045525F544300504D5F42494E4800504D92
:1047E0005F42494E4C00504D5F42494E0043425F8C
:1047F00046500043425F54500043425F464C0043E2
:10480000425F46520043425F56530043425F52505C
:104810004D004D425F4952004D425F4852004D42AB
:104820005F4449004D425F434F494C53000043559C
:10483000525F44004355525F43004355525F42006C
:104840004355525F410000004C554D0048554D42C4
:10485000005443420000534F494C5F4500534F49B9
:104860004C5F4300534F494C5F4200464400534461
:104870000054440055560050415200504C563300ED
:10488000504C563200504C563100575600414E4560
:10489000004C5700534F494C544600534F494C5419
:1048A0004300534F494C3300534F494C3200534F50
:1048B000494C3100000000000000000000004F5291
:1048C000505F45004F52505F410050485F450050D7
:1048D000485F41005455524200575400434F4E44E4
:1048E00000444F004F525000504800524144005085
:1048F000530056424F4F54005650524F47005641B6
:10490000504900005453540000005357495F44007D
:104910005357495F43005357495F42005357495F1C
:1049200041005357494E41005357494B0053574993
:10493000434C4F34005357494E4F32005357494D63
:1049400047005357494C4900535749504800535763
:10495000494147005357494E483400535749494F3E
:1049600000535749435500535749434C0053574947
:104970004252005357494E4F330053574946420065
:10498000535749464C00535749434100000000002B
:104990000050444F500056444F500048444F500080
:1049A000414C5400434F555253455F4F47005350BD
:1049B0004545445F4F470000000000000000000034
:1049C0005553004C555800505245530048554D0022
:1049D0005446005443005041525400504D31300071
:1049E000504D325F3500504D310052420055494420
:1049F000000000535452004D494C4C495300414370
:104A00004300494E5F54454D500052414D00474DC3
:104A1000540054494D450044415445004E4944001A
:104A20004E41004D414300525353490047505300FB
:104A3000424154000045565F450045565F440045DD
:104A4000565F430045565F4100524F55540052494E
:104A50004E0048414C4C004C4C004C5000504952C8
:104A6000005746000000000047505F460000004726
:104A7000505F430047505F420047505F41000000D5
:104A80000000000000004E4F49534500534F3200D4
:104A90005048330048434E0048434C0048325300CE
:104AA00048320045544F00434C32004E4F00564FA1
:104AB000430053560041503200415031004C5047A2
:104AC000004E4F32004E4833004F3300434834000D
:104AD0004F3200434F3200434F00030303030303ED
:104AE00003030303030302020102030300000000A7
:104AF000030003000003030302000002020102029C
:104B0000030202030303020002060203030300067A
:104B10000000000000000000020000000000000093
:104B2000020301010203030303030303030303005E
:104B30000000030202020303030002020202020257
:104B4000020202020202020303030000000000004E
:104B5000000000030300010000000303030303033C
:104B6000030303030303030303030302020002021C
:104B70000004040400030303030303030303030308
:104B8000020202030303000001010101010101010E
:104B90000101010101010101010101010101010105
:104BA00001010101010101030101010101010101F3
:104BB00001010101010101010101010101020101E4
:104BC00001010303010101030101010101010101CF
:104BD00001010101010101010101010101010303C1
:104BE00001010101010101010101010101010101B5
:104BF00001010101010101010101010101010101A5
:104C00000101010101010101010101010101010194
:104C10000101010101010101010101010101010184
:104C20000101020101010101010101010101010173
:104C30000101010118100202020202020202020234
:104C40000202020202020202000000000200020050
:104C50000002020202010002020202020202020239
:104C60000202020002020202020200020103030326
:104C70000000010102010403030303030202020214
:104C80000202020202020202020202000000040307
:104C900003030303030002020202020202020202F1
:104CA00002020202020200000000000000000002F6
:104CB00002040200000002020202020202020202D8
:104CC00002020202020202020202020202020202C4
:104CD00002020202020202020202020202020202B4
:104CE00002020101C351BF51BC51B851B451B0517E
:104CF000AC51A851A551A1519E519A519651925132
:104D00008D518A51875182517E517951765173511B
:104D10006F516B516851645160515C5159515451FC
:104D200051514E514B51475143513E5138513351DE
:104D300030512C5129512651235120511C511951C8
:104D4000155111510E510B51085105510151FD5092
:104D5000F850F450F150ED50E850E350DF50DB5084
:104D6000D350CF50C850C450C050BA50B650B350B2
:104D7000B050AC50A950A450A1509C5097509350A3
:104D80008E50895085507F507B5075506F506850C1
:104D900062505C5058504F50455041503C50375035
:104DA00032502E50295024501F50185011500A5084
:104DB0000350FD4FF74FF14FED4FE64FE04FDA4F05
:104DC000D44FCE4FC94FC44FBF4FBA4FB54FB04F5E
:104DD000A94FA24F9B4F964F914F8D4F884F834FB6
:104DE0007D4F774F704F6A4F634F5D4F564F4F4F18
:104DF000484F414F3B4F344F2E4F274F204F194FB5
:104E0000134F0C4F064F004FF94EF14EEA4EE34E52
:104E1000DD4ED54ECB4EC24EB94EB34EAD4EA74E23
:104E2000A14E9B4E954E8F4E894E834E7D4E774EB2
:104E3000724E6D4E684E624E5C4E564E4B4E404E1C
:104E40004F50435F4E325F42494E004F50435F4EDA
:104E5000335F42494E004F52505F43004F52505F04
:104E600042004F52505F410050485F430050485F3E
:104E7000420050485F41005357495048005357493A
:104E8000414700535749504200535749494F005337
:104E90005749435500535749434C005357494252D1
:104EA000005357494E4F0053574946420053574904
:104EB000464C005357494341004F50435F504152C5
:104EC00054004F50435F504D3130004F50435F50BE
:104ED0004D325F35004F50435F504D31004F5043CE
:104EE0005F50004F50435F5446004F50435F544360
:104EF0000047505F505245530047505F48554D00A2
:104F000047505F54460047505F54430047505F434B
:104F10004F320047505F4F330047505F43483400E3
:104F200047505F534F320047505F5048330047505F
:104F30005F4F320047505F4E4F320047505F4E4F39
:104F40000047505F4E48330047505F48434E00478C
:104F5000505F48434C0047505F4832530047505F12
:104F600048320047505F45544F0047505F434F0061
:104F700047505F434C320056424F4F5400565052F8
:104F80004F47005641504900545552420054535423
:104F90000057465F450057465F430048414C4C5F11
:104FA000460048414C4C5F450048414C4C5F440032
:104FB0004C4C5F46004C4C5F45004C4C5F44004CF1
:104FC000505F46004C505F45004C505F44004C55CC
:104FD0004D5F46004C554D5F45004C554D5F4400BC
:104FE00055535F35560055535F3356330054434392
:104FF00000534F494C3300534F494C3200534F49F3
:105000004C3100534F494C5F4600534F494C5F456C
:1050100000534F494C5F4400534F494C5F4300508D
:105020004C563300504C563200504C5631004653CB
:105030004D0050444F500056444F500048444F508C
:1050400000414C5400434F555253455F4F47005366
:10505000504545445F4F47004C555800444D5F5301
:105060005000444D5F53540054585F505752004411
:10507000494E4F330044494D47320044494B0044A8
:105080004943553200444949004449425200444989
:10509000434C0044494600444943410044494E4181
:1050A00000575400434F4E4400444F004F525000AD
:1050B000504800524200554944004D574946490066
:1050C0004D425400535452004D494C4C49530041F9
:1050D000434300494E5F54454D500052414D0047F7
:1050E0004D540054494D450044415445004E4944F7
:1050F000004E41004D414300525353490047505325
:1051000000424154004446004C430057460043557A
:105110000052414400504C5600575600414E450045
:105120004644005344005444005556005041520038
:105130004C5700534F494C00534F494C540048556D
:105140004D420054464200544342005053004D46E5
:105150000055530044555354004C440043504700FD
:10516000434447004D435000535400504952004CB3
:10517000554D004C4C004C500048414C4C005642A0
:10518000520042454E440050570050410048554D92
:1051900041005446410054434100564F43004F33B1
:1051A000004E4F3200535600415032004150310002
:1051B0004E4833004C504700434834004F320043C0
:1051C0004F3200434F005B5057525D204E6F697362
:1051D0006520696E20496E74657272757074696FAE
:1051E0006E206C696E65005B5057525D206465658A
:1051F00070536C65657020525443206572726F72F3
:1052000000496E636F727265637420696E707574A5
:1052100020706172616D65746572730A005B52542F
:10522000435D200057726F6E672074696D6520665C
:105230006F726D61742E204D75737420626520222B
:1052400064643A68683A6D6D3A7373220A005B527F
:1052500054435D2000E153CC53B653A65399538F6A
:10526000537F536A535353415335532E531C5309A1
:1052700053FC52F252E252BF52B95290527F525BEB
:10528000253032753A253032753A253032755D0059
:10529000253032752563253032752563253032750A
:1052A0002563253032752563253032752563253019
:1052B0003275256325303275006572726F72002574
:1052C000732C20253032752F253032752F25303242
:1052D000752C20253032753A253032753A2530321A
:1052E00075004F6E636520706572206D696E757410
:1052F00065005B6D6D5D202D2D3E20005B68683A7A
:105300006D6D5D202D2D3E20005B446174652C2069
:1053100068683A6D6D5D202D2D3E20005B446179FB
:105320002C2068683A6D6D5D202D2D3E20005B2598
:105330003032755D005B253032753A253032755D4F
:10534000005B253032752C20253032753A253032FD
:10535000755D005B253032752C20253032753A257D
:105360003032753A253032755D00496E636F727266
:1053700065637420616C61726D206D6F6465004FB0
:105380006E636520706572207365636F6E64005B89
:1053900073735D202D2D3E20005B6D6D3A73735D40
:1053A000202D2D3E20005B68683A6D6D3A73735D69
:1053B000202D2D3E20005B446174652C2068683AE6
:1053C0006D6D3A73735D202D2D3E20005B44617935
:1053D0002C2068683A6D6D3A73735D202D2D3E2048
:1053E00000416C61726D206D6174636865732000AB
:1053F000000008090000000000000000000000009C
:10540000000000000000000000000000000000009C
:10541000000000000000000000000000000000008C
:105420000000000000010208101020408004081055
:105430002040020204081020408001028020400425
:105440002001010204081020014080408001020870
:105450000408800410040201081005050505030373
:1054600003030101010404030606060606060606F8
:105470000104050105010302020202020201020207
:1054800005050404030404010304070707070700D4
:10549000202326292C2F32002225282B2E313400C0
:1054A0002124272A2D30336364696E6F70737578F9
:1054B000585B0000407A10F35A00A0724E180900A1
:1054C00010A5D4E80000E87648170000E40B540269
:1054D0000000CA9A3B000000E1F5050000809698A4
:1054E00000000040420F000000A0860100000010F4
:1054F0002700000000E80300000000640000000036
:10550000000A00000000000100000000002C76D816
:1055100088DC674F0823DFC1DFAE59E1B1B796E5FC
:10552000E3E453C63AE651997696E8E6C28426EB60
:10553000898C9B62ED407C6FFCEFBC9C9F40F2BA73
:10554000A56FA5F490055A2AF75C936B6CF9676D0B
:10555000C11BFCE0E40D47FEF520E6B500D0ED9060
:105560002E0300943577050080841E080000204E2D
:105570000A000000C80C333333330F986E128311C6
:1055800041EF8D2114893BE65516CFFEE6DB18D19D
:10559000844B381BF77C1D901DA4BBE4242032846F
:1055A000725E228100C9F124ECA1E53D270065323D
:1055B0009A35993DB4495B5269526D52675E296ACA
:1055C000456AAB6B0372FF7A11241FBECFEFD1E2A5
:1055D000DEBFCDBF13E0A0E0B2E0E4E1F4E101E022
:1055E0000BBF02C007900D92A239B107D9F725E190
:1055F000A2E9B3E001C01D92A439B207E1F71AE2B3
:10560000C4EEDAE204C02197FE010E94527FC73D3A
:10561000D107C9F70E94AE750C94088A0C9400005B
:105620008F929F92AF92BF92CF92DF92EF92FF92B2
:105630000F931F93CF93DF93CDB7DEB7CD57D340F2
:105640000FB6F894DEBF0FBECDBF7E0183ECE81A23
:105650008CEFF80A81E2F701982F11929A95E9F7F9
:105660006E01E4EECE1AECEFDE0AF60111928A9595
:10567000E9F75E01F5E2AF1AFDEFBF0A81E4F5013B
:1056800011928A95E9F74E01F2EA8F1AFCEF9F0A10
:105690008EE1F40111928A95E9F7EEEDF4E165915E
:1056A0007491C7010E9481800EE514E1F8016591B3
:1056B0007491C5010E9481800E5F1F4FF4E10E3D81
:1056C0001F07A1F70EE114E1F80165917491C6017D
:1056D0000E9481800E5F1F4F84E10E351807A1F7ED
:1056E000EEE1F2E165917491C4010E948180EEE1E6
:1056F000F0E165917491C4010E9481808BE491E195
:105700000E94B06FAE01435D5E4FB5018FE491E141
:105710000E9477758C01AE01495D5D4FB7018FE442
:1057200091E10E947775E82E5E019DE3A91A9EEF34
:10573000B90AA501B6018FE491E10E94777598013D
:105740003327BF92AF9284E08F9382E0882EFE01D0
:10575000E458FC4F5F01CE0101966C018E01095D9A
:105760001D4FAE01435D5E4F60E071E087EC93E05A
:105770000E94D83419A2AE0145575D4FB6018FE49F
:1057800091E10E94777568E479E08BE491E10E94F1
:1057900088716DE379E08BE491E10E94607148E0EB
:1057A00050E0BE0165577D4F8BE491E10E94D171BD
:1057B0006DE179E08BE491E10E94887148E050E06E
:1057C000BE0165577D4F82E591E10E9493800F9065
:1057D0000F900F90892B69F06EEF78E08BE491E1E8
:1057E0000E94887167EE78E08BE491E10E948871F5
:1057F000FFCFC358DC4F0FB6F894DEBF0FBECDBF4E
:10580000DF91CF911F910F91FF90EF90DF90CF909C
:10581000BF90AF909F908F9008952F923F924F929C
:105820005F926F927F928F929F92AF92BF92CF9230
:10583000DF92EF92FF920F931F93CF93DF93CDB739
:10584000DEB7CE5DD1090FB6F894DEBF0FBECDBF77
:10585000382E292E2B018DB79EB7C352DF4F998367
:105860008883CD5DD040FE0131963F0184E61192E0
:105870008A95E9F75E01F1EAAF0EB11C8CE3F50100
:10588000982F11929A95E9F76E01E5E6CE0ED11C9C
:10589000F60111928A95E9F7E1EEFEE065917491C7
:1058A000C3010E948C80E3EEFEE065917491C50116
:1058B0000E948C80E5EEFEE065917491C6010E9425
:1058C0008C8060E08CE49BE00E94D94964ED78E034
:1058D0008BE491E10E9460714091630C5091640CE3
:1058E00063E67BE08BE491E10E94D17160EC78E0AB
:1058F0008BE491E10E9460716091630C7091640C83
:105900008BE491E10E9473704091630C5091640CA0
:10591000440F551F4F5F5F4F8DB79EB7841B950B8C
:105920000FB6F8949EBF0FBE8DBF0DB71EB70F5FA9
:105930001F4F60E070E0C8010E94A9807801812CAF
:10594000912C8091630C9091640C8816990680F4D8
:10595000B4016D59744F21E0A7018FE491E10E94D9
:1059600000759FEF891A990AE2E0EE0EF11CE9CF6B
:10597000BF92AF921F930F93DF92CF927F926F925D
:10598000F1E04F1A51085F924F922F923F920E947E
:1059900019818DB79EB70C960FB6F8949EBF0FBEB7
:1059A0008DBFC352DF4FE881F981CD5DD0400FB686
:1059B000F894FEBF0FBEEDBFC252DF4F0FB6F89492
:1059C000DEBF0FBECDBFDF91CF911F910F91FF9032
:1059D000EF90DF90CF90BF90AF909F908F907F908F
:1059E0006F905F904F903F902F900895CF93DF93EB
:1059F000EC01ECE4FFE0659174910E948180EEE49B
:105A0000FFE065917491CE010E948180E0E5FFE0A6
:105A100065917491CE010E94818060EB78E08BE407
:105A200091E10E94887160E978E08BE491E10E9445
:105A30008871BE018BE491E10E945D7060E778E0BF
:105A40008BE491E1DF91CF910C948871EF92FF92FA
:105A50000F931F93CF93DF93CDB7DEB7D5500FB61B
:105A6000F894DEBF0FBECDBF8E010F541B4F8CE3E9
:105A7000F80111928A95E9F77E01F3E1EF1AFBEF45
:105A8000FF0A84E1F70111928A95E9F7E3EEFEE05F
:105A900065917491C8010E948C80E7EEFEE06591EB
:105AA0007491C7010E948C808CE496E00E948E4520
:105AB0008093C203813009F0E3C069E578E08BE4AC
:105AC00091E10E9488718CE496E00E945244809398
:105AD000C30381110DC06EE378E08BE491E10E9475
